:030000000201D624
:0C01D600787FE4F6D8FD75815B02021D05
:1000160001030506080A0C0D0F1112141618191BF8
:100026001D1E20222400010108000401080004010D
:10003600080004010800040601060106010801097A
:10004600020601060106010901080206010601066B
:10005600010601060106010601080109020601065C
:10006600010601090108020601060106010601064C
:100076000106010601080109020601060106010939
:10008600010802060106010601060106010601062F
:100096000108010902060106010C01090108020610
:1000A6000106010601060108010801080109010807
:1000B600010801080109010801080108020D0208EA
:1000C600020908090206020D0208020908090209C6
:1000D6000209020B020D080E0204020D020B0109B1
:1000E600010B080B020B020B020D020E080E020694
:1000F6000210020D020D020E0110010E020E020E7A
:100106000210021203140112041402120214021540
:100116000214011201140814080901080109010B4F
:10012600010901080109010B010901080109010B77
:10013600010D020B020901080109010B0109010861
:100146000109010B0109010801000200040E0C005F
:100156000400041004120410041402150217080007
:1001660004150214021208000413011501170119DF
:10017600011A0C19011D0C060106010601080109E8
:10018600020601060106010901080200040601062D
:100196000106010801090206010601060109010816
:1001A600020004060106010601080109020601060D
:1001B600010601090108020004250126013F065B2C
:1001C6004F666D7D077F6F777C395E79713837763C
:10038400010800204C100000F921F980F9E1FA3647
:10039400FA8CFAD8FB23FB68FBAAFBE9FC23FC5B81
:1003A400FC8FFCC0FCEFFD1BFD45FD6CFD91FDB415
:1003B400FDD5FDF4FE12FE2EFE47FE60FE78FE8E95
:1003C400FEA2FEB6FEC9FEDAFEEBFEFAFF09FF1737
:0203D400000027
:04047A007F0A7E0077
:10047E00EF1FAC0670011E4C600A7D027CC7DCFECD
:04048E00DDFC80EC25
:010492002247
:100493005389F0438901758CDCE4F58AC28DD28CD3
:0704A300D2A9D2AFD2B922A9
:0300130002041ACA
:10041A00C0E0C0D075D000C004C005C006C0071235
:10042A00047A750801D007D006D005D004D0D0D000
:02043A00E032AE
:10032C00E4F50DE5087045E50F6426603F75F002B5
:10033C00E50DA4242BF582E5F03400F583E493F568
:10034C000F75F002E50DA4242CF582E5F03400F5D0
:10035C0083E49375F08CA4FFAEF012047E050DC2FD
:10036C008C7F057E0012047ED28C80B7E4F508C227
:08037C008CD2A5C2A2F50F22EC
:1002620075900FE590640F60607F057E0012047E3A
:10027200E590640F604DAF90EF24F5601024FE60AE
:100282001114601324077012E4F50E800D750E012F
:100292008008750E028003750E037590F0AF90EF23
:1002A2002450601124E0601124F060112470701356
:1002B200850E0E800E7404800674088002740C256C
:0A02C2000EF50E75900F750B01226A
:10045C00E50ED3940B400CE50E640F6006E50E24FC
:0E046C00F4F509E50EC394085003850E0A222C
:10043C0075A01CE5099001D393F58012047A75A080
:10044C0018E50A9001C393F5807F0A7E0002047EB2
:1002CC00D2AFD2A8D2AAD288D28AD2B8C2BA1204D9
:1002DC009312026212045C12043CE50B640170354B
:1002EC00E50BB4012E75F007E509A4250AF582E4A7
:1002FC0035F0F583E5822415F582E5833400F5832A
:10030C00E493F50FD28C12043CE590B40FD2E4F5D3
:10031C000B80CDC28C20B2B912047A12032C80B19E
:03000B000203D716
:1003D700C0E0C0D075D000C000C004C005C006C0D2
:1003E70007E50F25E02410F8E6FE08E64E6015E560
:1003F7000F25E02410F8E6FC08E6FDECF58CAF05C8
:100407008F8AB2A5D007D006D005D004D000D0D0AF
:03041700D0E03200
:1001E2000202CCE493A3F8E493A34003F68001F265
:1001F20008DFF48029E493A3F85407240CC8C3331E
:10020200C4540F4420C8834004F456800146F6DFEC
:10021200E4800B0102040810204080900384E47EF5
:10022200019360BCA3FF543F30E509541FFEE493E1
:10023200A360010ECF54C025E060A840B8E493A3A8
:10024200FAE493A3F8E493A3C8C582C8CAC583CAD3
:10025200F0A3C8C582C8CAC583CADFE9DEE780BE8B
:0103D6000026
:00000001FF
